:100000000C9462000C948A000C948A000C948A0070
:100010000C948A000C948A000C948A000C948A0038
:100020000C948A000C948A000C948A000C948A0028
:100030000C948A000C948A000C948A000C948A0018
:100040000C94EF020C948A000C94BD020C9497025D
:100050000C948A000C948A000C948A000C948A00F8
:100060000C948A000C948A000000000024002700F1
:100070002A0000000000250028002B0000000000DE
:1000800023002600290004040404040404040202DA
:100090000202020203030303030301020408102007
:1000A0004080010204081020010204081020000012
:1000B0000008000201000003040700000000000027
:1000C00000008C0411241FBECFEFD8E0DEBFCDBFEF
:1000D00011E0A0E0B1E0E6ECF9E002C005900D927D
:1000E000A032B107D9F721E0A0E2B1E001C01D9232
:1000F000A63CB207E1F710E0C2E6D0E004C02197C9
:10010000FE010E94DB04C136D107C9F70E94390302
:100110000C94E1040C940000AF92BF92CF92DF9256
:10012000EF92FF920F931F93CF93DF936C017B01AC
:100130008B01040F151FEB015E01AE18BF08C0173D
:10014000D10759F06991D601ED91FC910190F081B0
:10015000E02DC6010995892B79F7C501DF91CF9173
:100160001F910F91FF90EF90DF90CF90BF90AF90D5
:100170000895FC01538D448D252F30E0842F90E0AD
:10018000821B930B541710F0CF9608950197089592
:10019000FC01918D828D981761F0A28DAE0FBF2F5B
:1001A000B11D5D968C91928D9F5F9F73928F90E0B1
:1001B00008958FEF9FEF0895FC01918D828D981720
:1001C00031F0828DE80FF11D858D90E008958FEF5D
:1001D0009FEF0895FC01918D228D892F90E0805C26
:1001E0009F4F821B91098F739927089589E291E0AF
:1001F0000E94EA0021E0892B09F420E0822F089573
:1002000080E090E0892B29F00E94F60081110C9487
:1002100000000895FC01A48DA80FB92FB11DA35AA9
:10022000BF4F2C91848D90E001968F739927848F16
:10023000A689B7892C93A089B1898C918370806439
:100240008C93938D848D981306C00288F389E02DDA
:1002500080818F7D80830895EF92FF920F931F938B
:10026000CF93DF93EC0181E0888F9B8D8C8D981369
:100270001AC0E889F989808185FF15C09FB7F89475
:10028000EE89FF896083E889F989808183708064C1
:1002900080839FBF81E090E0DF91CF911F910F910C
:1002A000FF90EF900895F62E0B8D10E00F5F1F4F1B
:1002B0000F731127E02E8C8D8E110CC00FB607FC2A
:1002C000FACFE889F989808185FFF5CFCE010E94B8
:1002D0000A01F1CFEB8DEC0FFD2FF11DE35AFF4F1B
:1002E000F0829FB7F8940B8FEA89FB898081806246
:1002F000CFCFCF93DF93EC01888D8823B9F0AA8903
:10030000BB89E889F9898C9185FD03C0808186FDD0
:100310000DC00FB607FCF7CF8C9185FFF2CF80811F
:1003200085FFEDCFCE010E940A01E9CFDF91CF9189
:100330000895833081F028F4813099F08230A9F05B
:1003400008958730A9F08830C9F08430B1F48091E5
:1003500080008F7D03C0809180008F778093800024
:10036000089584B58F7784BD089584B58F7DFBCFC4
:100370008091B0008F778093B00008958091B00095
:100380008F7DF9CF1F93CF93DF93282F30E0F901B2
:10039000E255FF4F8491F901E656FF4FD491F901E0
:1003A000EA57FF4FC491CC23A9F0162F81110E9468
:1003B0009901EC2FF0E0EE0FFF1FEE58FF4FA591D3
:1003C000B4918FB7F894EC91111108C0D095DE2349
:1003D000DC938FBFDF91CF911F910895DE2BF8CF73
:1003E000CF93DF9390E0FC01E656FF4F24918A57AC
:1003F0009F4FFC0184918823D1F090E0880F991FD2
:10040000FC01E859FF4FA591B491FC01EE58FF4F54
:10041000C591D49161110EC09FB7F8948C91E22FD1
:10042000E0958E238C932881E223E8839FBFDF91A0
:10043000CF9108958FB7F894EC91E22BEC938FBF96
:10044000F6CF3FB7F8948091250190912601A091B5
:100450002701B091280126B5A89B05C02F3F19F0B0
:100460000196A11DB11D3FBFBA2FA92F982F882734
:10047000BC01CD01620F711D811D911D42E0660F0F
:10048000771F881F991F4A95D1F70895FC010190A5
:100490000020E9F73197AF01481B590BBC0189E2F5
:1004A00091E00C948C008F929F92AF92BF920F9329
:1004B0001F93CF93DF93CDB7DEB7A1970FB6F89414
:1004C000DEBF0FBECDBF19A2423008F44AE08E0154
:1004D0000F5D1F4F842E912CB12CA12CA5019401EE
:1004E0000E94B904E62FB901CA01EA30F4F4E05DD4
:1004F000D801EE938D01232B242B252B79F790E047
:1005000080E0109719F0CD010E944602A1960FB627
:10051000F894DEBF0FBECDBFDF91CF911F910F9139
:10052000BF90AF909F908F900895E95CE1CF1F92AC
:100530000F920FB60F9211242F933F934F935F9317
:100540006F937F938F939F93AF93BF93EF93FF939B
:1005500089E291E00E940A01FF91EF91BF91AF9172
:100560009F918F917F916F915F914F913F912F91CB
:100570000F900FBE0F901F9018951F920F920FB6FD
:100580000F9211242F938F939F93EF93FF93E091FA
:100590003901F0913A018081E0913F01F0914001F1
:1005A00082FD1BC09081809142018F5F8F732091EB
:1005B0004301821741F0E0914201F0E0E75DFE4F18
:1005C000958F80934201FF91EF919F918F912F9191
:1005D0000F900FBE0F901F9018958081F4CF1F923F
:1005E0000F920FB60F9211242F933F938F939F93E7
:1005F000AF93BF938091210190912201A09123019B
:10060000B09124013091200123E0230F2D3758F5BC
:100610000196A11DB11D209320018093210190938B
:100620002201A0932301B093240180912501909190
:100630002601A0912701B09128010196A11DB11DAD
:100640008093250190932601A0932701B093280160
:10065000BF91AF919F918F913F912F910F900FBEBE
:100660000F901F90189526E8230F0296A11DB11D2B
:10067000D2CF789484B5826084BD84B5816084BD16
:1006800085B5826085BD85B5816085BD80916E0030
:10069000816080936E001092810080918100826061
:1006A000809381008091810081608093810080919E
:1006B00080008160809380008091B100846080938D
:1006C000B1008091B00081608093B00080917A0089
:1006D000846080937A0080917A00826080937A00AF
:1006E00080917A00816080937A0080917A0080689E
:1006F00080937A001092C100E0913901F0913A01A3
:1007000082E08083E0913501F09136011082E09122
:100710003701F09138018FEC808310924101E09114
:100720003D01F0913E0186E08083E0913B01F09134
:100730003C01808180618083E0913B01F0913C012C
:10074000808188608083E0913B01F0913C01808151
:1007500080688083E0913B01F0913C0180818F7D36
:10076000808360E086E00E94F00161E084E00E9406
:10077000F00161E083E00E94F00161E082E00E940C
:10078000F00161E087E00E94F00161E088E00E94F2
:10079000F00160E084E00E94C20160E083E00E941A
:1007A000C20160E082E00E94C20161E087E00E9435
:1007B000C20161E088E00E94C20154EB852E50E046
:1007C000952EC0EAD0E00CE810E060E0A62E60E0D4
:1007D000B62E412C512C3201E42C82E191E00E9492
:1007E00046024AE0C301B2010E94530288E191E04F
:1007F0000E94460227E0241508F482C060E087E0EA
:100800000E94C20161E088E00E94C2016E2D617009
:1008100084E00E94C201F12CB70175956795617063
:1008200083E00E94C201B70175956795759567953C
:1008300082E00E94C201F4018491FE01F490F8016B
:10084000E49070E060E0EE2099F081110E9499013F
:10085000EE2DF0E0EE0FFF1FE458FF4FA591B4918D
:100860008C91F82291E080E009F490E0692F782FD4
:10087000072E000C880B990B4AE00E9453028CE172
:1008800091E00E944602FFEF4F1A5F0A6F0A7F0A4B
:1008900020E1421651046104710409F09DCF0E94C9
:1008A00021026B017C0188EE482E83E0582E612CDA
:1008B000712C0E9421026C197D098E099F09683EE6
:1008C000734081059105A8F381E0481A5108610839
:1008D0007108E8EECE0EE3E0DE1EE11CF11C4114CF
:1008E00051046104710429F7A114B10409F471CF12
:1008F0000E94F600882309F46CCF0E94000069CFA3
:1009000061E087E00E94C20160E088E00E94C201CD
:1009100048EFE42EE40C7ACFE9E2F1E01382128290
:1009200088EE93E0A0E0B0E084839583A683B7834C
:1009300084E091E09183808385EC90E095878487C3
:1009400084EC90E09787868780EC90E0918B808B99
:1009500081EC90E0938B828B82EC90E0958B848B82
:1009600086EC90E0978B868B118E128E138E148EF0
:100970000895A1E21A2EAA1BBB1BFD010DC0AA1FE0
:10098000BB1FEE1FFF1FA217B307E407F50720F0F8
:10099000A21BB30BE40BF50B661F771F881F991F73
:1009A0001A9469F760957095809590959B01AC01BC
:1009B000BD01CF010895EE0FFF1F0590F491E02DCA
:0609C0000994F894FFCF3A
:1009C600000000002C018C00B9007901EA00C80083
:1009D600DC00566F69652000203A20000D0A0000F1
:00000001FF
